:020000040800F2
:1000000000800120D9260008292700082927000898
:1000100029270008292700082927000800000000D8
:10002000000000000000000000000000410800087F
:100030002927000800000000910A0008F90A0008BA
:1000400000000000292700082927000829270008A8
:100050002927000829270008292700082927000840
:100060002927000829270008292700082927000830
:100070002927000829270008292700082927000820
:100080002927000829270008292700080000000068
:100090000000000000000000000000002927000808
:1000A00029270008292700082927000829270008F0
:1000B00029270008292700082927000829270008E0
:1000C00029270008292700082927000829270008D0
:1000D000292700086D2600082927000800000000D5
:1000E0002927000829270008292700080000000008
:1000F00000000000000000000000000029270008A8
:1001000000000000292700082927000829270008E7
:1001100000000000000000000000000000000000DF
:10012000292700082927000829270008292700086F
:100130002927000800000000000000000000000067
:100140000000000000000000000000002927000857
:10015000292700082927000829270008292700083F
:1001600029270008292700080000000000000000DF
:10017000000000000000000000000000000000007F
:10018000000000000000000000000000000000006F
:040190002927000813
:1001A00010B5054C237833B9044B13B10448AFF3B1
:1001B00000800123237010BD5800002000000000C3
:1001C000502A000808B5034B1BB103490348AFF39D
:1001D000008008BD000000005C000020502A0008DC
:1001E00080B400AF064BD3F88830054A43F470035F
:1001F000C2F8883000BFBD465DF8047B704700BF81
:1002000000ED00E080B485B000AFF860B9607A60BE
:10021000FB68074A1A60BB68064A1A607B6880223E
:100220001A6000BF1437BD465DF8047B704700BFFD
:10023000740000201401002080B58AB000AF7860FF
:100240000023FB6101F066FB5B4B1B68002B01D1B7
:1002500000F020F9594B1A687B681340002B40F0DE
:1002600093807B68002B1DD008227B6813447B6041
:100270007B6803F00703002B14D07B6823F007038F
:1002800008337B607B6803F00703002B0AD04FF034
:10029000500383F31188BFF36F8FBFF34F8F7B61E0
:1002A00000BFFEE77B68002B6ED0454B1B687A6869
:1002B0009A4269D8434B3B62424B1B687B6204E025
:1002C0007B6A3B627B6A1B687B627B6A5B687A68DD
:1002D0009A4203D97B6A1B68002BF1D1364B1B680D
:1002E0007A6A9A4250D03B6A1B6808221344FB6129
:1002F0007B6A1A683B6A1A607B6A5A687B68D21A02
:1003000008235B009A421FD97A6A7B681344BB6159
:10031000BB6903F00703002B0AD04FF0500383F3AF
:100320001188BFF36F8FBFF34F8F3B6100BFFEE7B4
:100330007B6A5A687B68D21ABB695A607B6A7A68A2
:100340005A60B86900F008F91D4B1A687B6A5B684F
:10035000D31A1B4A13601A4B1A681B4B1B689A422C
:1003600003D2174B1B68184A13607B6A5A68134BF9
:100370001B681A437B6A5A607B6A00221A60134B1F
:100380001B680133114A136001F0D2FAFB6903F0D4
:100390000703002B0AD04FF0500383F31188BFF3FB
:1003A0006F8FBFF34F8FFB6000BFFEE7FB691846FE
:1003B0002837BD4680BD00BF1C3F0020303F0020D5
:1003C000203F0020143F0020243F0020283F002031
:1003D00080B586B000AF78607B687B617B68002B5E
:1003E0004DD008235B427A6913447B617B693B6192
:1003F0003B695A68244B1B681340002B0AD14FF00D
:10040000500383F31188BFF36F8FBFF34F8FFB60EF
:1004100000BFFEE73B691B68002B0AD04FF050037A
:1004200083F31188BFF36F8FBFF34F8FBB6000BFA3
:10043000FEE73B695A68144B1B681340002B1ED023
:100440003B691B68002B1AD13B695A680E4B1B682D
:10045000DB431A403B695A6001F05CFA3B695A6819
:100460000A4B1B681344094A1360386900F074F89A
:10047000074B1B680133064A136001F059FA00BFAD
:100480001837BD4680BD00BF303F0020203F002010
:100490002C3F002080B485B000AF4FF47053BB6098
:1004A000274BFB60FB6803F00703002B0CD0FB68B5
:1004B0000733FB60FB6823F00703FB60BA68FB6847
:1004C000D31A1F4A1344BB60FB687B601D4A7B68DC
:1004D00013601C4B00225A607B68BA681344FB60AF
:1004E0000822FB689B1AFB60FB6823F00703FB6094
:1004F000FB68154A1360144B1B6800225A60124BAC
:100500001B6800221A607B683B603B68FA68D21A5D
:100510003B685A600C4B1A683B681A603B685B6822
:100520000A4A13603B685B68094A1360094B4FF045
:1005300000421A6000BF1437BD465DF8047B704767
:1005400014030020143F00201C3F0020243F002003
:10055000203F0020303F002080B485B000AF78609D
:10056000284BFB6002E0FB681B68FB60FB681B68B4
:100570007A689A42F7D8FB68BB60FB685B68BA6828
:1005800013447A689A4208D1FB685A687B685B68B2
:100590001A44FB685A60FB687B607B68BB607B68C1
:1005A0005B68BA681A44FB681B689A4218D1FB68FA
:1005B0001A68154B1B689A420DD07B685A68FB6815
:1005C0001B685B681A447B685A60FB681B681A6882
:1005D0007B681A6008E00C4B1A687B681A6003E0BD
:1005E000FB681A687B681A60FA687B689A4202D0D6
:1005F000FB687A681A6000BF1437BD465DF8047B5B
:10060000704700BF143F00201C3F002080B483B01F
:1006100000AF78607B6803F108027B685A607B68F2
:100620004FF0FF329A607B6803F108027B68DA6062
:100630007B6803F108027B681A617B6800221A60FC
:1006400000BF0C37BD465DF8047B704780B483B0B3
:1006500000AF78607B6800221A6100BF0C37BD468E
:100660005DF8047B704780B485B000AF7860396076
:100670007B685B68FB603B68FA685A60FB689A6855
:100680003B689A60FB689B683A685A60FB683A6806
:100690009A603B687A681A617B681B685A1C7B68A1
:1006A0001A6000BF1437BD465DF8047B704780B404
:1006B00085B000AF786039603B681B68BB60BB6881
:1006C000B3F1FF3F03D17B681B69FB600CE07B68E3
:1006D0000833FB6002E0FB685B68FB60FB685B68FB
:1006E0001B68BA689A42F6D2FB685A683B685A603F
:1006F0003B685B683A689A603B68FA689A60FB6896
:100700003A685A603B687A681A617B681B685A1CB1
:100710007B681A6000BF1437BD465DF8047B7047E4
:1007200080B485B000AF78607B681B69FB607B6834
:100730005B687A6892689A607B689B687A6852689E
:100740005A60FB685B687A689A4203D17B689A6852
:10075000FB685A607B6800221A61FB681B685A1E9E
:10076000FB681A60FB681B6818461437BD465DF8C5
:10077000047B704780B485B000AFF860B9607A60E0
:10078000FB68043BFB60FB684FF080721A60FB68FB
:10079000043BFB60BB6823F00102FB681A60FB6846
:1007A000043BFB600C4AFB681A60FB68143BFB606F
:1007B0007A68FB681A60FB68043BFB60FB686FF0BB
:1007C00002021A60FB68203BFB60FB681846143786
:1007D000BD465DF8047B7047DD07000880B485B036
:1007E00000AF00237B60124B1B68B3F1FF3F0AD0C0
:1007F0004FF0500383F31188BFF36F8FBFF34F8F18
:10080000FB6000BFFEE74FF0500383F31188BFF396
:100810006F8FBFF34F8FBB6000BF00BF7B68002BA3
:10082000FCD000BF00BF1437BD465DF8047B7047A5
:100830000400002000000000000000000000000094
:10084000074B19680868B0E8F04F80F30988BFF3D8
:100850006F8F4FF0000080F311887047AFF3008076
:100860003C3F002000BF00BF08480068006880F3DC
:1008700008884FF0000080F3148862B661B6BFF3B9
:100880004F8FBFF36F8F00DF00BF00BF08ED00E0A8
:1008900080B586B000AF464B1B68464A93420AD1EA
:1008A0004FF0500383F31188BFF36F8FBFF34F8F67
:1008B0003B6100BFFEE73E4B1B683F4A93420AD1B3
:1008C0004FF0500383F31188BFF36F8FBFF34F8F47
:1008D000FB6000BFFEE7394B7B617B691B78DBB2B5
:1008E0007B607B69FF221A707B691B78DBB2FB702F
:1008F000FB78DBB203F05003DAB2314B1A70314BA4
:1009000007221A6009E02F4B1B68013B2D4A136038
:10091000FB78DBB25B00DBB2FB70FB78DBB203F091
:100920008003802BEFD0274B1B68C3F10703042BF8
:100930000AD04FF0500383F31188BFF36F8FBFF3DA
:100940004F8FBB6000BFFEE71E4B1B681B021D4A9A
:1009500013601C4B1B6803F4E0631A4A13607B6846
:10096000DAB27B691A70184B1B68174A43F470039C
:100970001360154B1B68144A43F07043136000F07A
:10098000DDF8124B00221A6000F0FCF8104B1B68D7
:100990000F4A43F040431360FFF766FF01F01CF974
:1009A000FFF71CFF002318461837BD4680BD00BF67
:1009B00000ED00E071C20F4170C20F4100E400E0A1
:1009C000343F0020383F002020ED00E004000020EC
:1009D00034EF00E080B483B000AF4FF0500383F3F6
:1009E0001188BFF36F8FBFF34F8F7B6000BF0F4B3A
:1009F0001B6801330D4A13600C4B1B68012B0FD190
:100A00000B4B1B68DBB2002B0AD04FF0500383F373
:100A10001188BFF36F8FBFF34F8F3B6000BFFEE7BE
:100A200000BF0C37BD465DF8047B70470400002012
:100A300004ED00E080B483B000AF124B1B68002BC4
:100A40000AD14FF0500383F31188BFF36F8FBFF3C8
:100A50004F8F7B6000BFFEE70A4B1B68013B094AD2
:100A60001360084B1B68002B05D100233B603B68DB
:100A700083F3118800BF00BF0C37BD465DF8047BCF
:100A8000704700BF040000200000000000000000CC
:100A9000EFF30980BFF36F8F154B1A681EF0100F2C
:100AA00008BF20ED108A20E9F04F10602DE9090001
:100AB0004FF0500080F31188BFF34F8FBFF36F8F5B
:100AC00001F08AF84FF0000080F3118809BC196822
:100AD0000868B0E8F04F1EF0100F08BFB0EC108AA5
:100AE00080F30988BFF36F8F704700BFAFF30080BA
:100AF0003C3F002000BF00BF80B582B000AF4FF088
:100B0000500383F31188BFF36F8FBFF34F8F7B6068
:100B100000BF00F0A9FF0346002B03D0064B4FF0A7
:100B200080521A6000233B603B6883F3118800BF4A
:100B300000BF0837BD4680BD04ED00E080B400AFC3
:100B40000B4B00221A600B4B00221A600A4B1B68E9
:100B50000A4AA2FB03239B09094A013B1360044B89
:100B600007221A6000BFBD465DF8047B704700BFD6
:100B700010E000E018E000E000000020D34D62101B
:100B800014E000E0DFF80C00016841F4700101603E
:100B9000704700BF88ED00E080B485B000AFEFF390
:100BA0000583FB60FB680F2B14D9174AFB681344BD
:100BB0001B78FB72154B1B78FA7A9A420AD24FF0D7
:100BC000500383F31188BFF36F8FBFF34F8F7B60A8
:100BD00000BFFEE70E4B1B6803F4E0620D4B1B6881
:100BE0009A420AD94FF0500383F31188BFF36F8FF5
:100BF000BFF34F8F3B6000BFFEE700BF1437BD4619
:100C00005DF8047B704700BFF0E300E0343F002054
:100C10000CED00E0383F002080B584B000AF786074
:100C200039607B68FB60FB68002B0AD14FF05003F2
:100C300083F31188BFF36F8FBFF34F8FBB6000BF8B
:100C4000FEE7FFF7C7FEFB681A68FB68DB6BF96815
:100C5000096C01FB03F31A44FB689A60FB680022ED
:100C60009A63FB681A68FB685A60FB681A68FB683D
:100C7000DB6B013BF968096C01FB03F31A44FB6869
:100C8000DA60FB68FF2283F84420FB68FF2283F8C8
:100C900045203B68002B14D1FB681B69002B1AD040
:100CA000FB681033184601F01DF80346002B12D0E4
:100CB0000C4B4FF080521A60BFF34F8FBFF36F8F12
:100CC00009E0FB6810331846FFF7A0FCFB682433EB
:100CD0001846FFF79BFCFFF7ADFE012318461037BF
:100CE000BD4680BD04ED00E080B58AB002AFF8607B
:100CF000B9601346FB71FB68002B0AD14FF050031B
:100D000083F31188BFF36F8FBFF34F8F3B6100BF39
:100D1000FEE7FB68BA6802FB03F3FB61FB6948333B
:100D20001846FFF789FAB861BB69002B11D0BB697F
:100D30007B617B6948337B61BB69002283F8462075
:100D4000FA79BB69009313467A69B968F86800F0CC
:100D500005F8BB6918462037BD4680BD80B584B014
:100D600000AFF860B9607A60FB70BB68002B03D1FC
:100D7000BB69BA691A6002E0BB697A681A60BB692C
:100D8000FA68DA63BB69BA681A640121B869FFF7C7
:100D900043FF00BF1037BD4680BD000080B58EB058
:100DA00000AFF860B9607A603B6000237B63FB684A
:100DB0003B633B6B002B0AD14FF0500383F3118848
:100DC000BFF36F8FBFF34F8FBB6200BFFEE7BB68FF
:100DD000002B03D13B6B1B6C002B01D1012300E0E6
:100DE0000023002B0AD14FF0500383F31188BFF387
:100DF0006F8FBFF34F8F7B6200BFFEE73B68022B14
:100E000003D13B6BDB6B012B01D1012300E00023FD
:100E1000002B0AD14FF0500383F31188BFF36F8F7B
:100E2000BFF34F8F3B6200BFFEE701F01BF90346A3
:100E3000002B02D17B68002B01D1012300E00023AD
:100E4000002B0AD14FF0500383F31188BFF36F8F4B
:100E5000BFF34F8FFB6100BFFEE7FFF7BBFD3B6BAE
:100E60009A6B3B6BDB6B9A4202D33B68022B29D116
:100E70003A68B968386B00F029FAF8623B6B5B6A34
:100E8000002B10D03B6B2433184600F02BFF034699
:100E9000002B13D03F4B4FF080521A60BFF34F8F9F
:100EA000BFF36F8F0AE0FB6A002B07D0394B4FF07E
:100EB00080521A60BFF34F8FBFF36F8FFFF7BAFDF9
:100EC000012363E07B68002B03D1FFF7B3FD002310
:100ED0005CE07B6B002B06D107F11403184600F091
:100EE00063FF01237B63FFF7A5FD00F013FDFFF710
:100EF00071FD3B6B93F844305BB2B3F1FF3F03D11C
:100F00003B6B002283F844203B6B93F845305BB287
:100F1000B3F1FF3F03D13B6B002283F84520FFF77D
:100F200089FD3A1D07F114031146184600F052FFDF
:100F30000346002B24D1386B00F0C0FA0346002B87
:100F400018D03B6B10337A681146184600F0A6FEA5
:100F5000386B00F04BFA00F0EBFC0346002B7FF4FB
:100F60007CAF0C4B4FF080521A60BFF34F8FBFF332
:100F70006F8F72E7386B00F039FA00F0D9FC6CE73C
:100F8000386B00F033FA00F0D3FC002318463837F2
:100F9000BD4680BD04ED00E080B590B000AFF860C4
:100FA000B9607A603B60FB68BB63BB6B002B0AD106
:100FB0004FF0500383F31188BFF36F8FBFF34F8F50
:100FC000BB6200BFFEE7BB68002B03D1BB6B1B6C91
:100FD000002B01D1012300E00023002B0AD14FF0A8
:100FE000500383F31188BFF36F8FBFF34F8F7B6282
:100FF00000BFFEE73B68022B03D1BB6BDB6B012B11
:1010000001D1012300E00023002B0AD14FF050034F
:1010100083F31188BFF36F8FBFF34F8F3B6200BF25
:10102000FEE7FFF7B9FDEFF311824FF0500383F3B2
:101030001188BFF36F8FBFF34F8FFA61BB61FB69FC
:101040007B63BB6B9A6BBB6BDB6B9A4202D33B68D7
:10105000022B2FD1BB6B93F8453087F83330BB6B35
:101060009B6BFB623A68B968B86B00F02FF997F98F
:101070003330B3F1FF3F12D1BB6B5B6A002B16D04C
:10108000BB6B2433184600F02DFE0346002B0ED018
:101090007B68002B0BD07B6801221A6007E097F871
:1010A00033300133DBB25AB2BB6B83F845200123E6
:1010B000FB6301E00023FB637B6B7B617B6983F354
:1010C000118800BFFB6B18464037BD4680BD00004D
:1010D00080B58CB000AFF860B9607A600023FB6225
:1010E000FB68BB62BB6A002B0AD14FF0500383F34D
:1010F0001188BFF36F8FBFF34F8F3B6200BFFEE7D6
:10110000BB68002B03D1BB6A1B6C002B01D10123F0
:1011100000E00023002B0AD14FF0500383F3118825
:10112000BFF36F8FBFF34F8FFB6100BFFEE700F08F
:1011300099FF0346002B02D17B68002B01D10123CC
:1011400000E00023002B0AD14FF0500383F31188F5
:10115000BFF36F8FBFF34F8FBB6100BFFEE7FFF799
:1011600039FCBB6A9B6B7B627B6A002B1FD0B96822
:10117000B86A00F015F97B6A5A1EBB6A9A63BB6AAB
:101180001B69002B0FD0BB6A1033184600F0AAFD74
:101190000346002B07D03D4B4FF080521A60BFF33F
:1011A0004F8FBFF36F8FFFF745FC012369E07B682A
:1011B000002B03D1FFF73EFC002362E0FB6A002B0B
:1011C00006D107F11003184600F0EEFD0123FB6283
:1011D000FFF730FC00F09EFBFFF7FCFBBB6A93F8C7
:1011E00044305BB2B3F1FF3F03D1BB6A002283F806
:1011F0004420BB6A93F845305BB2B3F1FF3F03D1A3
:10120000BB6A002283F84520FFF714FC3A1D07F162
:1012100010031146184600F0DDFD0346002B23D1D4
:10122000B86A00F035F90346002B17D0BB6A2433A7
:101230007A681146184600F031FDB86A00F0D6F819
:1012400000F076FB0346002B89D1104B4FF0805203
:101250001A60BFF34F8FBFF36F8F80E7B86A00F05B
:10126000C5F800F065FB7AE7B86A00F0BFF800F057
:101270005FFBB86A00F00CF90346002B3FF46FAF38
:10128000002318463037BD4680BD00BF04ED00E0A6
:1012900080B584B000AF78607B68002B0AD14FF036
:1012A000500383F31188BFF36F8FBFF34F8FBB6081
:1012B00000BFFEE7FFF78EFB7B689B6BFB60FFF7D1
:1012C000B9FBFB6818461037BD4680BD80B586B0B7
:1012D00000AFF860B9607A6000237B61FB689B6BAC
:1012E0003B61FB681B6C002B0DD1FB681B68002B5E
:1012F0004DD1FB689B68184600F0D2FE7861FB6810
:1013000000229A6043E07B68002B19D1FB68586883
:10131000FB681B6C1A46B96801F034FBFB685A681D
:10132000FB681B6C1A44FB685A60FB685A68FB68D0
:101330009B689A422BD3FB681A68FB685A6026E0C8
:10134000FB68D868FB681B6C1A46B96801F01AFB89
:10135000FB68DA68FB681B6C5B421A44FB68DA6066
:10136000FB68DA68FB681B689A4207D2FB689A68D8
:10137000FB681B6C5B421A44FB68DA607B68022BDB
:1013800005D13B69002B02D03B69013B3B613B69C6
:101390005A1CFB689A637B6918461837BD4680BDA6
:1013A00080B582B000AF786039607B681B6C002B21
:1013B00018D07B68DA687B681B6C1A447B68DA603B
:1013C0007B68DA687B689B689A4203D37B681A68FB
:1013D0007B68DA607B68D9687B681B6C1A46386862
:1013E00001F0D0FA00BF0837BD4680BD80B584B09B
:1013F00000AF7860FFF7EEFA7B6893F84530FB7337
:1014000011E07B685B6A002B12D07B68243318469E
:1014100000F068FC0346002B01D000F03DFDFB7B93
:10142000013BDBB2FB7397F90F30002BE9DC00E0E6
:1014300000BF7B68FF2283F84520FFF7FBFAFFF728
:10144000C9FA7B6893F84430BB7311E07B681B6971
:10145000002B12D07B681033184600F043FC034683
:10146000002B01D000F018FDBB7B013BDBB2BB734E
:1014700097F90E30002BE9DC00E000BF7B68FF220B
:1014800083F84420FFF7D6FA00BF1037BD4680BD71
:1014900080B584B000AF7860FFF79CFA7B689B6BE7
:1014A000002B02D10123FB6001E00023FB60FFF76A
:1014B000C1FAFB6818461037BD4680BD80B584B0C0
:1014C00000AF7860FFF786FA7B689A6B7B68DB6B0E
:1014D0009A4202D10123FB6001E00023FB60FFF789
:1014E000A9FAFB6818461037BD4680BD80B58EB09E
:1014F00004AFF860B9607A603B607B6B002B0AD167
:101500004FF0500383F31188BFF36F8FBFF34F8FFA
:101510003B6200BFFEE7BB6B002B0AD14FF05003CC
:1015200083F31188BFF36F8FBFF34F8FFB6100BF51
:10153000FEE7A0233B613B69A02B0AD04FF050038C
:1015400083F31188BFF36F8FBFF34F8FBB6100BF71
:10155000FEE73B69BB6B002B1ED07B6B002B1BD0C7
:10156000BB6B7B627B6A7A6B1A637B6A022283F8AD
:101570009D20002303937B6A029307F114030193D8
:101580003B6B00933B687A68B968F86800F050F8E4
:10159000786A00F0EBF801E000237B617B69184674
:1015A0002837BD4680BD80B58CB004AFF860B96007
:1015B0003B601346FB80FB889B001846FEF73CFE11
:1015C00078617B69002B0ED0A020FEF735FEF86114
:1015D000FB69002B03D0FB697A691A6305E078691F
:1015E000FEF7F6FE01E00023FB61FB69002B17D03C
:1015F000FB69002283F89D20FA8800230393FB698E
:101600000293FB6A0193BB6A00933B68B968F86870
:1016100000F00EF8F86900F0A9F80123BB6102E0C0
:101620004FF0FF33BB61BB6918462037BD4680BD14
:1016300080B588B000AFF860B9607A603B603B6B02
:101640001A6B7B6803F18043013B9B001344BB6131
:10165000BB6923F00703BB61BB6903F00703002BE1
:101660000AD04FF0500383F31188BFF36F8FBFF39D
:101670004F8F7B6100BFFEE7BB68002B1FD00023AC
:10168000FB6112E0BA68FB69134419783A6BFB6995
:10169000134434330A461A70BA68FB6913441B7842
:1016A000002B06D0FB690133FB61FB690F2BE9D9E5
:1016B00000E000BF3B6B002283F8432003E03B6B5C
:1016C000002283F83420BB6A062B01D90623BB62B3
:1016D0003B6BBA6ADA623B6BBA6A5A643B6B0022B4
:1016E0009A643B6B04331846FEF7B0FF3B6B18332C
:1016F0001846FEF7ABFF3B6B3A6B1A61BB6AC3F14E
:1017000007023B6B9A613B6B3A6B5A623B6B002260
:10171000C3F898203B6B002283F89C203B6B4C3332
:101720004C220021184601F091F83B6B0C4A1A65D7
:101730003B6B0C4A5A653B6B0B4A9A653A68F968F1
:10174000B869FFF717F802463B6B1A60FB6A002B7B
:1017500002D0FB6A3A6B1A6000BF2037BD4680BDDD
:101760007C400020E44000204C41002080B582B045
:1017700000AF7860FFF72EF92A4B1B680133294A26
:101780001360294B1B68002B09D1274A7B68136023
:10179000244B1B68012B10D100F0A2FB0DE0234B62
:1017A0001B68002B09D1204B1B68DA6A7B68DB6A57
:1017B0009A4202D81C4A7B6813601D4B1B68013398
:1017C0001B4A13607B68DB6A01229A40194B1B6835
:1017D0001343184A13607B68DA6A13469B0013446C
:1017E0009B00154A1A447B68043319461046FEF7DD
:1017F0003AFFFFF71FF90D4B1B68002B0ED00A4B69
:101800001B68DA6A7B68DB6A9A4207D20B4B4FF09F
:1018100080521A60BFF34F8FBFF36F8F00BF08373E
:10182000BD4680BD3C4000203C3F00204840002099
:101830005840002044400020403F002004ED00E0DC
:1018400080B58AB004AF0023BB6000237B603A46BA
:10185000391D07F108031846FEF7D4FC39687B6888
:10186000BA68029201930023009300230A4621499B
:101870002148FFF73BFE0346204A13601F4B1B68BD
:10188000002B02D001237B6101E000237B617B6997
:10189000012B1BD14FF0500383F31188BFF36F8FDF
:1018A000BFF34F8F3B6100BF154B1B684C33154A8C
:1018B0001360154B4FF0FF321A60144B01221A606F
:1018C000134B00221A60FEF7E3FF0EE07B69B3F1D1
:1018D000FF3F0AD14FF0500383F31188BFF36F8F9E
:1018E000BFF34F8FFB6000BFFEE700BF1837BD4658
:1018F00080BD00BF682A0008B11E000860400020BB
:101900003C3F0020540000205C4000204840002064
:101910004040002080B400AF044B1B680133034AF1
:10192000136000BFBD465DF8047B70476440002033
:1019300080B584B000AF0023FB600023BB60414B47
:101940001B68002B0AD14FF0500383F31188BFF3BB
:101950006F8FBFF34F8F3B6000BFFEE7FFF73AF892
:10196000384B1B68013B374A1360364B1B68002B12
:1019700061D1354B1B68002B5DD02EE0334BDB680B
:10198000DB68FB60FB6818331846FEF7C9FEFB688E
:1019900004331846FEF7C4FEFB68DB6A01229A4056
:1019A0002B4B1B6813432A4A1360FB68DA6A134601
:1019B0009B0013449B00274A1A44FB6804331946D2
:1019C0001046FEF750FEFB68DA6A234B1B68DB6AA1
:1019D0009A4202D3214B01221A601C4B1B68002B38
:1019E000CCD1FB68002B01D000F01CFB1C4B1B680A
:1019F0007B607B68002B10D000F036F80346002B8C
:101A000002D0164B01221A607B68013B7B607B6829
:101A1000002BF1D1124B00221A60104B1B68002BD7
:101A200009D00123BB600F4B4FF080521A60BFF307
:101A30004F8FBFF36F8FFEF7FDFFBB68184610375F
:101A4000BD4680BD644000203C400020FC3F00209B
:101A500044400020403F00203C3F002050400020F8
:101A60004C40002004ED00E080B586B000AF0023BC
:101A70007B614E4B1B68002B40F08E804C4B1B68EB
:101A800001333B614A4A3B6913603B69002B20D11B
:101A9000484B1B681B68002B0AD04FF0500383F3A0
:101AA0001188BFF36F8FBFF34F8F3B6000BFFEE71E
:101AB000404B1B68FB60404B1B683E4A13603E4A2C
:101AC000FB6813603D4B1B6801333C4A136000F018
:101AD000A9FA3B4B1B683A699A4248D3354B1B68BD
:101AE0001B68002B04D1364B4FF0FF321A603EE0EA
:101AF000304B1B68DB68DB68BB60BB685B687B6086
:101B00003A697B689A4203D22D4A7B6813602EE0C3
:101B1000BB6804331846FEF703FEBB689B6A002BC4
:101B200004D0BB6818331846FEF7FAFDBB68DB6AC1
:101B300001229A40234B1B681343224A1360BB685F
:101B4000DA6A13469B0013449B001F4A1A44BB6881
:101B5000043319461046FEF786FDBB68DA6A1B4B54
:101B60001B68DB6A9A42B9D301237B61B6E7174B46
:101B70001B68DA6A144913469B0013449B000B440C
:101B80001B68012B01D901237B61114B1B68002BC2
:101B900007D001237B6104E00E4B1B6801330D4A23
:101BA00013607B6918461837BD4680BD644000202D
:101BB00040400020F43F0020F83F00205440002027
:101BC0005C40002044400020403F00203C3F00207B
:101BD000504000204C40002080B487B000AF294B1B
:101BE0001B68002B03D0284B01221A6044E0264BCF
:101BF00000221A60254B1B68FB60FB68B3FA83F375
:101C0000FB72FB7AC3F11F037B6121497A6913469A
:101C10009B0013449B000B441B68002B0AD14FF020
:101C2000500383F31188BFF36F8FBFF34F8F7B6037
:101C300000BFFEE77A6913469B0013449B00144AD9
:101C400013443B613B695B685A683B695A603B6976
:101C50005A683B6908339A4204D13B695B685A6809
:101C60003B695A603B695B68DB680A4A1360094B51
:101C70001B684C33084A136000BF1C37BD465DF833
:101C8000047B704764400020504000204440002006
:101C9000403F00203C3F00205400002080B584B02D
:101CA00000AF786039607B68002B0AD14FF0500399
:101CB00083F31188BFF36F8FBFF34F8FFB6000BFBB
:101CC000FEE7074B1B68183319467868FEF7EFFCF0
:101CD0000121386800F06AFA00BF1037BD4680BDA8
:101CE0003C3F002080B586B000AF78607B68DB6841
:101CF000DB683B613B69002B0AD14FF0500383F353
:101D00001188BFF36F8FBFF34F8FFB6000BFFEE7FB
:101D10003B6918331846FEF703FD1D4B1B68002B6B
:101D20001CD13B6904331846FEF7FAFC3B69DB6AB9
:101D300001229A40174B1B681343164A13603B69F4
:101D4000DA6A13469B0013449B00134A1A443B690A
:101D5000043319461046FEF786FC05E03B6918334C
:101D600019460E48FEF77FFC3B69DA6A0C4B1B688C
:101D7000DB6A9A4205D901237B610A4B01221A6072
:101D800001E000237B617B6918461837BD4680BDA2
:101D90006440002044400020403F0020FC3F0020E1
:101DA0003C3F00205040002080B483B000AF7860FA
:101DB000064B1A687B681A60054B1A687B685A6084
:101DC00000BF0C37BD465DF8047B704754400020CF
:101DD0004040002080B588B000AF786039607B68F3
:101DE000002B0AD14FF0500383F31188BFF36F8F9C
:101DF000BFF34F8F3B6100BFFEE73B68002B0AD16A
:101E00004FF0500383F31188BFF36F8FBFF34F8FF1
:101E1000FB6000BFFEE7FEF7DDFD1D4B1B68BB61ED
:101E20007B685B68BA69D31A7B613B681B68B3F156
:101E3000FF3F02D10023FB6123E07B681A68154B4A
:101E40001B689A4207D07B685B68BA699A4202D3E2
:101E50000123FB6115E03B681B687A699A420BD24B
:101E60003B681A687B69D21A3B681A607868FFF78A
:101E70009BFF0023FB6104E03B6800221A60012302
:101E8000FB61FEF7D7FDFB6918462037BD4680BDD4
:101E9000404000205440002080B400AF034B01229A
:101EA0001A6000BFBD465DF8047B704750400020BB
:101EB00080B582B000AF786000F052F8064B1B6826
:101EC000012BF9D9054B4FF080521A60BFF34F8FA9
:101ED000BFF36F8FF0E700BF403F002004ED00E04C
:101EE00080B582B000AF00237B600CE07A681346B7
:101EF0009B0013449B00124A13441846FEF786FBCE
:101F00007B6801337B607B68062BEFD90D48FEF7B9
:101F10007DFB0D48FEF77AFB0C48FEF777FB0C487B
:101F2000FEF774FB0B48FEF771FB0B4B054A1A607A
:101F30000A4B054A1A6000BF0837BD4680BD00BF86
:101F4000403F0020CC3F0020E03F0020FC3F00202D
:101F50001040002028400020F43F0020F83F0020DF
:101F600080B582B000AF19E0FEF734FD104BDB689E
:101F7000DB687B607B6804331846FEF7D1FB0D4BB2
:101F80001B68013B0B4A13600B4B1B68013B0A4A61
:101F90001360FEF74FFD786800F010F8064B1B68E1
:101FA000002BE1D100BF00BF0837BD4680BD00BF98
:101FB000104000203C4000202440002080B584B028
:101FC00000AF78607B684C33184600F059FC7B68A2
:101FD00093F89D30002B08D17B681B6B1846FEF7E9
:101FE000F7F97868FEF7F4F918E07B6893F89D300C
:101FF000012B03D17868FEF7EBF90FE07B6893F8CB
:102000009D30022B0AD04FF0500383F31188BFF3A9
:102010006F8FBFF34F8FFB6000BFFEE700BF10372D
:10202000BD4680BD80B483B000AF0C4B1B681B68FD
:10203000002B04D10A4B4FF0FF321A6008E0074B27
:102040001B68DB68DB687B607B685B68044A136045
:1020500000BF0C37BD465DF8047B7047F43F00209D
:102060005C40002080B483B000AF0B4B1B68002B9A
:1020700002D101237B6008E0084B1B68002B02D1D2
:1020800002237B6001E000237B607B6818460C37ED
:10209000BD465DF8047B7047484000206440002046
:1020A00080B586B000AF78607B683B6100237B61C0
:1020B0007B68002B6ED03A4B1B683A699A420AD073
:1020C0004FF0500383F31188BFF36F8FBFF34F8F2F
:1020D000FB6000BFFEE73B699B6C002B0AD14FF011
:1020E000500383F31188BFF36F8FBFF34F8FBB6033
:1020F00000BFFEE73B699B6C5A1E3B699A643B69D3
:10210000DA6A3B695B6C9A4244D03B699B6C002B5A
:1021100040D13B6904331846FEF702FB0346002B0F
:1021200015D13B69DA6A1F4913469B0013449B0093
:102130000B441B68002B0AD13B69DB6A012202FABF
:1021400003F3DA43184B1B681340174A13603B69CB
:102150005A6C3B69DA623B69DB6AC3F107023B698F
:102160009A613B69DB6A01229A400F4B1B6813435B
:102170000D4A13603B69DA6A13469B0013449B00C7
:10218000084A1A443B69043319461046FEF76BFAB5
:1021900001237B617B6918461837BD4680BD00BFAF
:1021A0003C3F0020403F00204440002080B584B0E8
:1021B00000AF78603960294B1B68FB60284B1B68B7
:1021C00004331846FEF7ACFA0346002B0BD1244B20
:1021D0001B68DB6A012202FA03F3DA43214B1B6816
:1021E0001340204A13607B68B3F1FF3F0AD13B687C
:1021F000002B07D01A4B1B68043319461A48FEF708
:1022000032FA26E0FA687B681344BB60144B1B6803
:10221000BA685A60BA68FB689A4209D2134B1A68C6
:102220000F4B1B68043319461046FEF740FA10E0C6
:102230000F4B1A680A4B1B68043319461046FEF709
:1022400036FA0C4B1B68BA689A4202D2094ABB683C
:10225000136000BF1037BD4680BD00BF4040002066
:102260003C3F00204440002028400020F83F002050
:10227000F43F00205C40002080B582B000AF786061
:1022800007221049786800F0E9FA0346002B09D0CC
:1022900007220D49786800F0E1FA0346002B01D0CF
:1022A000012300E00023002B06D17B68073318468A
:1022B00000F03BFA034601E04FF0FF3318460837C1
:1022C000BD4680BD702A0008782A000880B400AF9F
:1022D0000F4B1B6B0E4A43F0010313630D4B1B683E
:1022E0000C4A23F4406313600A4B1B68094A43F409
:1022F00080631360074B9B68064A43F44063936016
:10230000044B20229A6100BFBD465DF8047B7047F4
:10231000003802400000024080B400AF2A4B1B6C22
:10232000294A43F001031364274B1B6B264A43F0F1
:1023300001031363254B1B68244A23F44063136095
:10234000224B1B68214A43F4006313601F4B9B68B8
:102350001E4A43F4406393601C4B1B6A1B4A43F4C0
:10236000801313624FF0804340F23F629A624FF055
:102370008043FE22DA624FF0804300225A634FF01E
:1023800080439B694FF0804243F0600393614FF0BC
:1023900080431B6A4FF0804243F0010313624FF009
:1023A00080431B684FF0804243F0010313604FF0FD
:1023B00080435B6C4FF0804243F40043536400BFA2
:1023C000BD465DF8047B70470038024000000240C3
:1023D00080B483B000AF0346FB7197F90730002B40
:1023E0000BDBFB7903F01F02074997F907305B0904
:1023F000012000FA02F241F8232000BF0C37BD464D
:102400005DF8047B704700BF00E100E080B483B05A
:1024100000AF03463960FB7197F90730002B0ADBE8
:102420003B68DAB20C4997F907301201D2B20B447B
:1024300083F800230AE03B68DAB20849FB7903F02D
:102440000F03043B1201D2B20B441A7600BF0C37C3
:10245000BD465DF8047B704700E100E000ED00E060
:1024600080B500AF274B1B6B264A43F00103136373
:10247000254B1B68244A43F480631360224B1B687E
:10248000214A43F4002313601F4B1B681E4A43F488
:10249000001313601C4B5B6A1B4A43F070035362CA
:1024A000194B5B6A184A43F4E0635362154B5B6C4B
:1024B000144A43F010035364144B40F283629A6051
:1024C000124BDB68114A43F00803D3600F4BDB6803
:1024D0000E4A43F00403D3600C4BDB680B4A43F015
:1024E0002003D3602520FFF773FF084BDB68074A02
:1024F00043F40053D36005212520FFF787FF00BF79
:1025000080BD00BF003802400000024000100140C2
:1025100080B582B002AFFFF7D9FEFFF7A1FFFFF74A
:10252000FBFE002301930123009300238022104926
:102530001048FFF738F8002301930123009300238C
:1025400080220D490D48FFF72EF8002204210B20B0
:10255000FEF7CAFB03460A4A1360002204210A2040
:10256000FEF7C2FB0346074A1360FFF769F9FEE76F
:10257000802A000889250008842A0008C925000847
:10258000684000206C40002080B584B000AF7860C7
:102590000C4B1B681846FEF77BFE0346002BF7D05A
:1025A000084B1B6807F10F014FF0FF321846FEF78A
:1025B0008FFD0346012BEBD1FA7B4FF080435A632A
:1025C00000BFE5E76C40002080B588B000AF7860C0
:1025D0000023FB61214B1B681846FEF759FE03469A
:1025E000002BF7D01D4B1B6807F10D014FF0FF3298
:1025F0001846FEF76DFD0346012B2DD1797B184A55
:10260000FB6913440A461A70FB69591C154BA3FB5E
:102610000123DA0813469B0013445B001344CB1AD2
:10262000FB617B7B0A2B17D10D48FFF725FE034684
:102630001BB2FB81B7F90E30FF2B0BDCB7F90E3064
:10264000002B07DB084B186807F10E01002300225E
:10265000FEF7A4FB0023FB6100BFBBE7684000203E
:1026600070400020A38B2EBA6C40002080B582B051
:1026700000AF00237B60144B1B6803F02003002B8A
:102680001DD0114BDB6803F02003002B17D00E4B3D
:102690001B680D4A23F0200313600C4B18683A1D89
:1026A00000230B49FEF778FC7B68002B07D0094B11
:1026B0004FF080521A60BFF34F8FBFF36F8F00BF90
:1026C0000837BD4680BD00BF0010014068400020B3
:1026D0000410014004ED00E00D488546FDF780FD43
:1026E0000C480D490D4A002302E0D458C45004336D
:1026F000C4188C42F9D30A4A0A4C002301E0136043
:102700000432A242FBD300F017F9FFF701FFFEE706
:10271000008001200000002058000020982B0008B5
:1027200058000020BC410020FEE70A22002100F0F2
:1027300083B80000012B2DE9F04701D0242B06D9E6
:1027400000F0F4F8162303600020BDE8F087DFF8FE
:10275000E4C00D462E4615F8014B1CF8047017F026
:102760000807F7D12D2C32D12C780127B51C002B6E
:102770005BD0102B09D1302C07D12C7804F0DF046A
:10278000582C4DD16C781023023507F1004808F120
:10279000FF384FF0000EB8FBF3F9764603FB198AB9
:1027A000A4F1300CBCF1090F16D86446A34224DD15
:1027B000BEF1FF3F08D0B1451CD301D1A24519DBC2
:1027C00006FB03464FF0010E15F8014BE8E72B2CF2
:1027D00004BF2C78B51CCAE7A4F1410CBCF1190F59
:1027E00001D8373CE2E7A4F1610CBCF1190F04D821
:1027F000573CDBE74FF0FF3EE6E7BEF1FF3F05D178
:1028000022230360464642B930469EE707B176422E
:10281000002AF9D0BEF1000F00D0691E1160F3E765
:102820003024002BB1D10823AFE7302CA5D00A23E8
:10283000ABE700BF902A000813460A46014602484B
:102840000068FFF777BF00BF540000200244034632
:10285000934200D1704703F8011BF9E710B56AB144
:102860000139841810F8012B11F8013F9A4203D165
:10287000A04201D0002AF5D1D01A10BD1046FCE7C5
:10288000294B1B68834270B504464BD0C36943B1E2
:10289000DB68002B44D1E369196811B1204600F0D0
:1028A0007FF8616911B1204600F07AF8E16911B151
:1028B000204600F075F8216B11B1204600F070F849
:1028C000616B11B1204600F06BF8A16B11B120468D
:1028D00000F066F8A16C11B1204600F061F8616C5F
:1028E00011B1204600F05CF8E16A11B1204600F019
:1028F00057F8236AB3B12046BDE8704018474959DC
:1029000041B90435E369802DD968F8D1204600F03B
:1029100047F8C0E70E68204600F042F83146EFE77E
:102920000025EFE770BD00BF54000020014B186880
:10293000704700BF5400002070B50D4D0D4C641B56
:10294000A4100026A64209D10B4D0C4C00F080F8D3
:10295000641BA4100026A64205D170BD55F8043BA7
:1029600098470136EEE755F8043B98470136F2E701
:10297000902B0008902B0008902B0008942B000847
:10298000704770470A44914200F1FF3300D170470D
:1029900010B511F8014B03F8014F9142F9D110BD68
:1029A00037B5002944D051F8043C0190002BA1F127
:1029B0000404B8BFE41800F03FF81E4A01981368F9
:1029C00033B96360146003B0BDE8304000F03AB83A
:1029D000A34208D9256861198B4201BF19685B6859
:1029E00049192160EDE71A465B680BB1A342FAD999
:1029F00011685518A5420BD1246821445418A342EC
:102A00001160E0D11C685B6853600C441460DAE725
:102A100002D90C230360D6E7256861198B4204BFF5
:102A200019685B68636004BF491921605460CAE794
:102A300003B030BDB84100200148FFF7A1BF00BF7F
:102A4000B44100200148FFF79CBF00BFB441002003
:102A5000F8B500BFF8BC08BC9E467047F8B500BF8B
:082A6000F8BC08BC9E4670475B
:102A680049444C450000000041542B4C45443D006E
:102A780061742B6C65643D004C45440041545F57BC
:102A8800616974696E6700002020202020202020C2
:102A98002028282828282020202020202020202006
:102AA8002020202020202020881010101010101026
:102AB800101010101010101004040404040404046E
:102AC80004041010101010101041414141414101FF
:102AD80001010101010101010101010101010101DE
:102AE80001010110101010101042424242424202ED
:102AF80002020202020202020202020202020202AE
:102B08000202021010101020000000000000000057
:102B180000000000000000000000000000000000AD
:102B2800000000000000000000000000000000009D
:102B3800000000000000000000000000000000008D
:102B4800000000000000000000000000000000007D
:102B5800000000000000000000000000000000006D
:102B6800000000000000000000000000000000005D
:102B7800000000000000000000000000000000004D
:082B8800000000000000000045
:042B9000C501000873
:042B9400A101000893
:102B98000024F400AAAAAAAA000000007C40002091
:102BA800E44000204C41002000000000000000002C
:102BB800000000000000000000000000000000000D
:102BC80000000000000000000000000000000000FD
:102BD80000000000000000000000000000000000ED
:082BE8000000000008000020BD
:04000005080026D9F0
:00000001FF
